:1000000005308A00592D00000C2A3A102533A01221
:10001000E32100005439661DA0126910A531430088
:100020003930840083130008031923280330F800B3
:10003000F701F70B1928F80B18289030F700F70B89
:100040001F28800B16280800401828280710292888
:10005000071420102008831687008312C018322846
:10006000871033288714A010200883168700831276
:1000700040193C2807113D28071520112008831638
:1000800087008312C0194628871147288715A011B9
:10009000200883168700000083120717201320080A
:1000A0008316870053285428000083120713201357
:1000B00020088316870083120800C101201420083D
:1000C000831687000030831207180130C104A01482
:1000D0002008831687000030831287180130F7004C
:1000E0000310F70D7708C104201520088316870038
:1000F0000030831207190130F700F70DF70DFC30BF
:10010000F7057708C104A015200883168700003082
:10011000831287190130F700F70DF70DF70DF8304E
:10012000F7057708C1044108F800080020132008EB
:1001300083168700831220122008831687008312FB
:10014000A0122008831687008312071220122008AD
:1001500083168700071487140715871583128716DF
:10016000A0122008831687000000831207172013AF
:10017000200883168700000083125D207808C000E5
:100180000713201320088316870000008312071727
:100190002013200883168700CD2883125D2078085D
:1001A000BF00071320132008831687008312201036
:1001B0002008831687008312A0102008831687006A
:1001C000831220112008831687008312A0112008B3
:1001D000831687008312400EF700F030F70577088A
:1001E0003F04F8007808BF00BF1FF8288316AA282C
:1001F000BD08031DFD280712FE280716201220083F
:1002000083168700000083128712A012200883162D
:10021000870000008312071320132008831687002D
:1002200083123E0EBF000F30BF053F08C0002420E0
:100230003E080F39BF00C000242008002830AC0061
:100240000C30AD000130AE000630AF0007132013B4
:1002500020088316870083120712201220088316B5
:10026000870083128712A01220088316870083124A
:1002700020102008831687008312A0102008831600
:100280008700831220112008831687008312A01193
:100290002008831687008312201320088316870006
:1002A000831220122008831687008312A0122008D0
:1002B000831687000F308312B90010200130AB0085
:1002C0002B08033C031C6C290330C000242005309C
:1002D000B9001020AB0A60290230C000242005308C
:1002E000B9001020AB012B08033C031C83292C30E0
:1002F0002B07840083130008B000BD013008BE0046
:100300009620AB0A73298A110A12792D8E30F700D4
:100310002C08F8002B08F900FA01F808031D9A29A7
:100320007908F800F9010830F702F808031D9A2946
:10033000F701A2290310F81BA129F90DF80DF70305
:100340009A29F813080038080319132AC0003C083A
:100350000319132AC0070318B4297F30C002031CF5
:10036000132A0319132AB8298130C0070318132A46
:100370004008F700F801F901FA013908C400C41770
:100380003A08C3003B08C2001830C000C101421C3B
:10039000E1293F08FA07031CD329F90A031DD329D1
:1003A000F80A0319C1173E08F907031CDA29F80AED
:1003B0000319C1173D08BA00BA173A08F80703181D
:1003C000C117C10DF80CF90CFA0CC40CC30CC20C0B
:1003D0000310C00BC6290130F7070318132AF81BB6
:1003E000F829C40DFA0DF90DF80DF7030319132AB6
:1003F000C41F092AFA0A031D092AF90A031D092A3A
:10040000F80A031D092AF80CF90CFA0CF70A03196B
:10041000132A3908C1003D08C106C11F112AF81767
:10042000172AF813172AF701F801F901FA01080051
:100430002F080319DD2ABB0033080319DD2ABB028C
:10044000031C272A7F30BB070318DD2A2D2A8130A1
:10045000BB02031CDD2A0319DD2A3B08F700F80163
:10046000F901FA01BA013008B900B9173108B8002A
:100470003208B7001930BB003608B7020318502AFB
:100480000130B8020318502AB9020318502ABA02E0
:100490000318502ABA0AB90AB80A3608B707822AD6
:1004A0003508B80203186B2A0130B90203186B2A09
:1004B000BA0203186B2ABA0AB90A3508B80736080F
:1004C000B707031C822AB80A031D822AB90A031D32
:1004D000822ABA0A822A34088038B9020318812A8B
:1004E0000130BA020318812ABA0A34088038B907E1
:1004F0003508B807031C5F2AB90A031D5F2ABA0A28
:100500005F2A7A14BB0B852A902A0310B70DB80D09
:10051000B90DBA0D0310FA0DF90DF80DBC0D3C2AFA
:100520003C1C982A0310F80CF90CFA0CBC0C9B2A02
:10053000F7030319DD2ABC1BC42A0310B70DB80D3D
:10054000B90DBA0D3608B7020318B02A0130B80247
:100550000318B02AB9020318B02ABA02031CD32A1E
:100560003508B8020318BB2A0130B9020318BB2AA8
:10057000BA02031CD32A34088038B9020318C42AEB
:100580000130BA02031CD32AFA0A031DD32AF90A3E
:10059000031DD32AF80A031DD32AF70A0319DD2AFB
:1005A000F80CF90CFA0C3008BB003408BB06BB1F72
:1005B000DB2AF817E12AF813E12AF701F801F9011B
:1005C000FA018A110A12B52D2C08B3003008B306BF
:1005D000B31FEF2A03110310AC1B0314222B2C08AA
:1005E000B3002F08B4002B08B4020319FD2AB31F6F
:1005F000222B0308013A8300222B3008B4002C0878
:10060000B4020319092BB31F222B0308013A8300FC
:10061000222B3108B4002D08B4020319152BB31F87
:10062000222B0308013A8300222B3208B4002E0843
:10063000B4020319212BB31F222B0308013A8300B4
:10064000222B03108A110A12DE2D3A0B282B2B2B9A
:100650004030BB002C2BBB0101303902BB073B08EB
:100660008038BC00BD013C08BE0096200800380858
:10067000073A0319452B0B3A03194A2B063A03197B
:10068000522B023A0319582B5D2B0130B900BA00E6
:100690002523622BBD010130BE0096200230B90037
:1006A0001020622B0130B9000230BA002523622BE2
:1006B000BD011030BE009620622B0130BD0038080D
:1006C000BE00962008000B08AC008B13831603179E
:1006D0008C170C140000000083120313AC1B8B1743
:1006E00003189A2B03170C087F390313AC00031768
:1006F0000D080313AD0003170F080313AE002C08F9
:10070000B80037232D0803178D0003132E08031795
:100710008F0003130B08AF008B13831603178C177E
:100720000C140000000083120313AF1B8B17AB0BDC
:100730009A2BB92B03170C0D0E0D7F390313AC0048
:1007400003170D080313AD0003170F080313AE00C2
:100750002C08B80037232D0803178D0003132E082B
:1007600003178F008D0A03198F0A03100313AB0BB5
:10077000632B08008318BF2B403084008313F701DC
:10078000F801F901FA01C001C101C201C3013F082A
:100790003E043D043C040319FD2B2030C40003102B
:1007A000B80DB90DBA0DBB0DC00DC10DC20DC30DF5
:1007B0003F084302031DE62B3E084202031DE62BC1
:1007C0003D084102031DE62B3C084002031CF72BA9
:1007D0003C08C0023D08031C3D0FC1023E08031C3B
:1007E0003E0FC2023F08031C3F0FC3020314F70D64
:1007F000F80DF90DFA0DC40BCF2B40088000840AC8
:1008000041088000840A42088000840A430880006E
:1008100008000408B0002F08B2000319282C2E0885
:10082000BB002D08BA002C08B9002B08B800BF0186
:10083000BE012030BD008230BC00A3217A08AE008A
:100840007908AD007808AC007708AB00B20B0F2C2C
:100850002E08BB002D08BA002C08B9002B08B800E0
:100860003808B63CB800FA013908BC00B9170310C3
:10087000B90CBA0CBB0CFA0CF90CF80CF70CB80B51
:10088000372CBC1F4E2CF709F809F909FA09F70AA9
:100890000319F80A0319F90A0319FA0A7A08AE00CB
:1008A0007908AD007808AC007708AB00AE1F652C66
:1008B000B003B016AB09AC09AD09AE09AB0A031918
:1008C000AC0A0319AD0A0319AE0A3B30B7009A30DF
:1008D000B600CA30B500B4010A30B2002F080319BF
:1008E000B00A83142B30840083132E08BB002D081C
:1008F000BA002C08B9002B08B8003708BF0036082A
:10090000BE003508BD003408BC00BA237808F708DB
:10091000031D9D2C2F0A320203199D2C3008031948
:100920009F2C0F3932020319972C0318CF2CB01BC0
:10093000CF2C301B9F2C2030CB2C2030B005B01E8C
:10094000AD2CB0122F08031DB0037708B0002D3076
:10095000B80037233008F700B0012F083202031D1A
:10096000BB2C7708B0002E30B80037233008F700D2
:100970002030B00500303030B01ECB2CB0122F0824
:10098000031DB0037708B0002D30B80037233008BE
:10099000F700B0013030F7077708B800372383102D
:1009A0003708BB003608BA003508B9003408B8006B
:1009B000BF01BE01BD010A30BC00BA237A08B700EE
:1009C0007908B6007808B5007708B400B20B712C2E
:1009D0008A110A12042E3208F80131020318F32C8E
:1009E0003108F700FF2CF7010830B300B10DF70D07
:1009F000320877020318F700F80DB30BF62C080045
:100A000020302C1E3030AD002B08F700AB1F102D0E
:100A1000F709F70A7708AB002D30AD00AC172C149E
:100A20002B08B1006430B200EB247708AB00303003
:100A30007807AE002B08B1000A30B200EB2430304A
:100A40007707B00030307807AF002D08F70030305E
:100A50002E0203192F2DAC14AC1B2C15432D2D0881
:100A6000AE002030AD0030302F0203193B2D2C1486
:100A7000AC1BAC14432D031D2C14031D432D2E0859
:100A8000AF002030AE002C194A2DAC184D2D2C187B
:100A9000502D532D2D08B80037232E08B8003723CA
:100AA0002F08B80037233008B80037238A110A12FC
:100AB000212E03081F398300FF30A000831603177F
:100AC0000908C039890003131F129F120030031751
:100AD000880083128701880189018313FF30831600
:100AE0000313860087008312A000831689118312E6
:100AF0001E293230AA00FF308316860083120608B2
:100B0000A100AC012108AB0086217A08A500790874
:100B1000A4007808A3007708A2002508BB002408D9
:100B2000BA002308B9002208B800BF01BE01203076
:100B3000BD008130BC00A3217A08AE007908AD0069
:100B40007808AC007708AB007A08B2007908B100E9
:100B50007808B0007708AF008530B600EB30B500FC
:100B60004730B4008230B300182A7A08A900790807
:100B7000A8007808A7007708A6008316051483123A
:100B80000518C42DAA03C92D831685148312851C4C
:100B9000AA0AAC012A08AB0086212908AE00280861
:100BA000AD002708AC002608AB007A08B20079082F
:100BB000B1007808B0007708AF00E42A031CE72DE5
:100BC000A01320088316870083128713ED2DA0132E
:100BD00020088316870083128717043003178D00BF
:100BE00000308F00031004300313AB0063238930FF
:100BF00084002908AE002808AD002708AC002608AC
:100C0000AB000230AF00092C2030B8003723DF30B2
:100C1000B80037234330B80037230130B900023021
:100C2000BA0025230A3003178D0000308F0003100F
:100C300005300313AB0063232A08AB001830AC0067
:100C4000002D2030B8003723DF30B8003723433081
:100C5000B80037230230AB009630B9001020AB0B40
:060C60002C2E7B2D630029
:04400E00E22FFF3F5F
:00000001FF
;PIC16F886
;CRC=F16A  CREATED="29-nov.-18 21:09"
